:020000040000fa
:080000000002040000000000f2
:020000040000fa
:100400002f9723000eff27000e0188000000000038
:100410000c00070080042800110020000f000700d6
:10042000000020000000e000020032000000020096
:1004300000000000aad60200000000000040da0020
:100440000000fe00406a24000000e00002003200cc
:10045000002020009001880000000600a102880012
:10046000800078000000eb001a003700e2804000b6
:1004700054a0b4009101ba00e280400054a0b4003e
:100480009102ba00e280400054a0b4000002eb00e8
:10049000472bde00f507b200a6018800602ce100c2
:1004a00008003a000049eb000201e80002003900b0
:1004b0003420ec0002f0a0008301e900f9ff3e00c7
:1004c000040037006128e100010032000082eb00e7
:1004d000040007001101ba000200e000e3ff3a0047
:1004e0000000060004d0a300e20f49001c00390000
:1004f000810278003549ba000201e80002003900a3
:100500003420ec0002f0a0008301e9000f0032006b
:100510002549ba000201e800020039003420ec004d
:1005200002f0a0008301e900080032000400e000ae
:100530000600320015c9ba000201e80002003900c5
:100540003420ec0002f0a0008301e9008180e80083
:1005500054a0b4000300e000e2ff3a0000000600ef
:100560009102ba00055978008301e900f7ff3200d3
:10057000c82ade00055978008301e900f3ff320044
:100580000400e000f1ff320011d9ba00eeff37009d
:100590003675040001000000cc7404000100000066
:1005a000a8740400010000001a5e040001000000ad
:1005b000c65d040001000000505d04000100000061
:1005c000305a040001000000ee5a0400010000004f
:1005d0006477040001000000787704000100000047
:1005e0000040da000000fe00020ab900001bb9005a
:1005f0000200b800810042008100430000000600b4
:10060000800078001106b100030035009101b100af
:1006100001003c000050a1000000060080007800ae
:100620001104b100030035009101b10001003c004c
:100630000050a00000000600889fbe0080047800e3
:10064000f00f81000000e00003003a0010000700f6
:100650000000e0000a003500f00f81000900e00012
:1006600002003a0000047800060037000004780019
:1006700009004000060007000000e00001003d0006
:100680000084eb00080078004f04be000000060064
:10069000800078000000e00004003a00a05e220024
:1006a000f00f890001017800060037000081eb009f
:1006b00020972300808f500002003e00f10f890038
:1006c0000001eb0002007800000006006022b80084
:1006d000060220000000d0008180d2000482d200f7
:1006e0008582d2000000a0000202520083825a00dc
:1006f000030031000202420083824a000000a10090
:100700000603e900f3ff3a0000000600839f68003b
:100710000100e00002003d0060001000e0801800d1
:100720000300e00002003d0060011100e0811900bb
:10073000e6ff07004f00e00002003b0060001000f1
:10074000e080180000000600e0ff07000400be0083
:1007500000000600889fbe008a9fbe008c9fbe00de
:1007600000017800615b22001100e0000b003a00fc
:10077000a05b2200b02d8900902d8900d12d890029
:10078000a12d8900214090000004a000a040980005
:10079000614090000004a000e0409800e7004100a4
:1007a000c208de00c20cdd00a42d8100ad5e220077
:1007b000209723000d05500022002000811f7800a3
:1007c000110009000205d80000067800cf0078006b
:1007d000c308dd00e48540008001eb00a65e220036
:1007e000655b220001003700010278002440900080
:1007f0000008a300020032000a003700110a780046
:1008000094007800214090000008a300fbff320014
:1008100009014200828f500002003900840f51000c
:100820004600310094007800848f5000eeff3e00b7
:10083000868f500002003900858f5000eaff390092
:10084000902d8100800f52004f003a00858f50009c
:100850004d003a008301e800e18f5100e2ff3600cd
:100860008c8f5400040036008a8f5400020031003f
:100870000b04780012003700614ab8006151b900da
:10088000b0ff2f00010020000200500083805800bc
:10089000800f5200818f5a00020035000904780051
:1008a000070037000d8054005297230002004000db
:1008b000110009000a80d8000a80b90000047800fd
:1008c000080078005cff070080017800e10f40001d
:1008d0002d003200902d810003087800922d8100b8
:1008e00064004100a2409000808f5100020032005d
:1008f0000104a000010037000104a100214198007b
:10090000088041006400500080097800902d890023
:10091000625b220002087800912d81002140900046
:100920000004a000a0409800234090000004a10013
:10093000a041980002027800a7ff3700a22d89008d
:10094000828f50000900360092007800005b220080
:10095000a241900003487800712d890014097800a5
:100960008040eb00a02d810021409800a02d810047
:10097000000a7800244090000004a0002042980063
:1009800064004200010037000000eb004f06be008b
:100990004f05be004f04be0000000600640050007a
:1009a000a02d8900a04090000104a10021409800e2
:1009b00000000600889fbe008a9fbe0000057800e8
:1009c000e401500013001000c285de0023409000b7
:1009d0000008a30004003200a32d890023409000ea
:1009e0000004a100a04198000100780059ff070011
:1009f000000478000000e000170032008a0f500069
:100a00001500320060b8970008005000c284de0074
:100a1000898f550001003600890578004259dd00b4
:100a20008a007800080078004c0007008a0f540004
:100a3000090031004248dd00000044008a0f5000e8
:100a4000050036000a00500000004400722d8100ad
:100a5000832d81000288be00080078004f05be008b
:100a60004f04be00000006008001780000017800fd
:100a700031407800005978000004e000fcff3a00a3
:100a80000300780000000600810178000002eb00fe
:100a90000b003700e44078000104e000030032005e
:100aa0000402e80093cf5000040032008180fb0074
:100ab0001380fb0000805000000006008301e80066
:100ac000820f5200f3ff3a00000005008001eb00a6
:100ad00002003700817178008301e800828f5100a5
:100ae000fcff3a0000000600000378008002780056
:100af000020278008001eb00080037000402e900e0
:100b000063c07800805a78008301e8000004e000a8
:100b100002003a008000eb0006003700828f51008f
:100b2000f6ff3a00fbff37000040eb0080f07a0050
:100b30008100e800848f5000fbff3a000600780037
:100b400000000600800078003004e000feff3a005c
:100b5000010050000000e900000006008001eb00e9
:100b60000200370061f079008301e800828f5100b4
:080b7000fcff3a000000060042
:020000040000fa
:020000040005f5
:0457f400ffef0000c3
:020000040000fa
:020000040005f5
:0457f800ae1b0000e4
:020000040000fa
:020000040005f5
:0457fc007f3e0000ec
:020000040000fa
:10000800f0020000f0020000f0020000f002000020
:10001800f0020000f0020000f0020000f002000010
:10002800f0020000f0020000f0020000f002000000
:10003800f0020000f0020000f00200001cd20000f4
:100048009ad10000f0020000f0020000c2d10000c6
:10005800e0d10000f0020000f0020000f002000011
:10006800f0020000f0020000f0020000f0020000c0
:10007800f0020000f0020000f0020000f0020000b0
:10008800f0020000f0020000f0020000f0020000a0
:10009800f0020000f0020000387d0100f0020000cc
:1000a800f0020000f0020000f0020000f002000080
:1000b800f0020000f0020000f0020000f002000070
:1000c800f0020000f0020000f0020000f002000060
:1000d800f0020000f0020000f0020000f002000050
:1000e800f0020000f0020000f0020000f002000040
:1000f800f0020000f0020000f0020000f002000030
:10010800f0020000f0020000f0020000f00200001f
:10011800f0020000f0020000f0020000f00200000f
:10012800f0020000f0020000f0020000f0020000ff
:10013800f0020000f0020000f0020000f0020000ef
:10014800f0020000f0020000f0020000f0020000df
:10015800f0020000f0020000f0020000f0020000cf
:10016800f0020000f0020000f0020000f0020000bf
:10017800f0020000f002000028f40000f002000085
:10018800f0020000f0020000f0020000f00200009f
:10019800f0020000f0020000f0020000f00200008f
:1001a800f0020000f0020000f0020000f00200007f
:1001b8005ac20000f0020000f0020000f002000045
:1001c800f0020000f0020000f0020000f00200005f
:1001d800f0020000f0020000f0020000f00200004f
:1001e800f0020000f0020000f0020000f00200003f
:0801f800f0020000f00200001b
:020000040000fa
:10020800f0020000f0020000f0020000f00200001e
:10021800f0020000f0020000f0020000f00200000e
:10022800f0020000f0020000f0020000f0020000fe
:10023800f0020000f0020000f00200001cd20000f2
:100248009ad10000f0020000f0020000c2d10000c4
:10025800e0d10000f0020000f0020000f00200000f
:10026800f0020000f0020000f0020000f0020000be
:10027800f0020000f0020000f0020000f0020000ae
:10028800f0020000f0020000f0020000f00200009e
:10029800f0020000f0020000387d0100f0020000ca
:1002a800f0020000f0020000f0020000f00200007e
:1002b800f0020000f0020000f0020000f00200006e
:1002c800f0020000f0020000f0020000f00200005e
:1002d800f0020000f0020000f0020000f00200004e
:1002e800f0020000f0020000f0020000f00200003e
:1002f800f0020000f0020000f0020000f00200002e
:10030800f0020000f0020000f0020000f00200001d
:10031800f0020000f0020000f0020000f00200000d
:10032800f0020000f0020000f0020000f0020000fd
:10033800f0020000f0020000f0020000f0020000ed
:10034800f0020000f0020000f0020000f0020000dd
:10035800f0020000f0020000f0020000f0020000cd
:10036800f0020000f0020000f0020000f0020000bd
:10037800f0020000f002000028f40000f002000083
:10038800f0020000f0020000f0020000f00200009d
:10039800f0020000f0020000f0020000f00200008d
:1003a800f0020000f0020000f0020000f00200007d
:1003b8005ac20000f0020000f0020000f002000043
:1003c800f0020000f0020000f0020000f00200005d
:1003d800f0020000f0020000f0020000f00200004d
:1003e800f0020000f0020000f0020000f00200003d
:0803f800f0020000f002000019
:020000040000fa
:100b7800000000004a82000001010000000000009f
:100b880028f700000001000000000000366b00009c
:100b98000101000000000000b06600000101000033
:100ba80000000000bc6f0000010100000000000010
:100bb8005a4c000001010000000000004044000001
:100bc8000101000000000000263c000001010000b7
:100bd800000000000c3400000101000000000000cb
:100be800200000003a0000003a0000000b740000ea
:100bf800000000000de8000000000000155c000087
:100c080001000000170a00000200000017b80000e9
:100c18000200000022660000030000002188000096
:100c2800040000000caa000005000000101e0000cf
:100c380006000000109200000600000016060000e2
:100c48000700000014b40000070000000b62000059
:100c58000800000011d60000080000000b84000006
:100c68000900000017f800000900000017a600009e
:100c78000a000000175400000b00000017020000d3
:100c88000c00000017b000000c000000185e000007
:100c98000d000000170c00000e00000017ba00003d
:100ca8000e000000176800000f0000001716000073
:100cb8001000000017c40000100000000b720000b4
:100cc800110000000000000000000000000000000b
:100cd800000000000000000000000000000000000c
:100ce80000000000000000000000000000000000fc
:100cf80000000000000000000000000000000000ec
:100d080000000000000000000000000000000000db
:100d180000000000000000000000000000000000cb
:100d280000000000000000000000000000000000bb
:100d380000000000000000000000000000000000ab
:100d4800000000000000000000000000000000009b
:100d5800000000000000000000000000000000008b
:100d6800000000000000000000000000000000007b
:100d7800000000000000000000000000000000006b
:100d8800000000000000000000000000000000005b
:100d9800000000000000000000000000000000004b
:100da800000000000000000000000000000000003b
:100db800000000000000000000000000000000002b
:100dc800000000000000000000000000000000001b
:100dd8000000000080010000e0010000f0010000b8
:100de800f0010000f0010000f0010000f001000037
:100df800f0010000e0010000e0010000e001000057
:100e0800e0000000e0000000e0000000e00000005a
:100e1800e0000000e0000000e0000000e00000004a
:100e2800e0000000e0000000e0000000e00000003a
:100e3800e0000000e0000000e000000060000000aa
:100e48000000000000000000c0010000e0030000f6
:100e5800f0030000f0030000f0030000f0010000c0
:100e6800e00000000000000000000000000000009a
:100e7800000000000000000000000000000000006a
:100e8800000000000000000000000000000000005a
:100e9800000000000000000000000000000000004a
:100ea800000000000000000000000000000000003a
:100eb800000000000000000000000000000000002a
:100ec800000000000000000000000000000000001a
:100ed800c0c0000001f00000f0010000f0f00000c8
:100ee80001f00000e0010000f0e0000001f0000067
:100ef800e0010000f0e0000001f00000e001000067
:100f0800f0e0000000e00000e0000000e0e0000089
:100f180000e00000e0000000e0e0000000e0000069
:100f2800e000000060c0000000600000c000000099
:100f380000000000000000000000000000000000a9
:100f48000000000000000000000000000000000099
:100f58000000000000000000000000000000000089
:100f68000000000000000000000000000000000079
:100f78000000000000000000000000000000000069
:100f88000000000000000000000000000000000059
:100f98000000000000000000000000000000000049
:100fa8000000000000000000000000000000000039
:100fb8000000000000000000000000000000000029
:100fc8000000000000000000000000000000000019
:100fd8000000000000000000000000000000000009
:100fe80000000000000000000000000000000000f9
:100ff80000000000000000000000000000000000e9
:1010080000000000000000000000000000000000d8
:1010180000000000000000000000000000000000c8
:1010280000000000000000000000000000000000b8
:1010380000000000000000000000000000000000a8
:10104800000000000030000018000000381c0000fc
:10105800003800001c000000181c0000001c0000e4
:101068000c0000001c0e0000001c00000e00000018
:101078000c060000e0ff00007fe00000ff7f00009a
:10108800000600000300000087030000008700003e
:1010980003000000830300000083000001800000bb
:1010a800c301000080c3000001f80000ff1f00001a
:1010b800fcff00000fc00000e1000000c0e00000dd
:1010c80000e0000060000000e070000000e00000a8
:1010d8007000000060700000007000003000000028
:1010e8007038000000300000180000000000000008
:1010f80000000000000000000000000000000000e8
:1011080000000000000000000000000000000000d7
:1011180000000000000000000000000000000000c7
:1011280000000000000000000000000000000000b7
:1011380000000000000000000000000000000000a7
:101148000000000000000000000000000000000097
:101158000000000000000000000000000000000087
:101168000000000000000000000000000000000077
:101178000000000000000000000000000000000067
:101188000000000000000000000000000000000057
:1011980000000000000c0000000000000c0000002f
:1011a800000c0000000000000c00000000ff000020
:1011b80000e00000ff030000f0fc000007780000da
:1011c800cc070000388c0000033c00000c01000034
:1011d8003c0c0000003c00000c0000007c0c0000ef
:1011e80000fc00000c000000f80f000000f80000f0
:1011f8000f000000f03f000000c00000ff010000e9
:1012080000ff000003000000fc07000000fc0000d5
:101218000f000000cc1f0000000c00001f000000a1
:101228000c1f0000000c00001e0000000c1e000037
:101238000c0c00001e0c00000c0e00001c0c000022
:101248000f3c00008c070000fccc000003f80000f5
:10125800ff000000c03f0000000000000c0000007c
:10126800000c0000000000000c000000000c000052
:101278000000000000000000000000000000000066
:101288000000000000000000000000000000000056
:101298000000000000000000000000000000000046
:1012a8000000000000000000000000000000000036
:1012b8000000000000000000000000000000000026
:1012c8000000000000000000000000000000000016
:1012d8000000000000000000000000000000000006
:1012e80000000000000000000000000000000000f6
:1012f80000000000000000000000000000000000e6
:1013080000000000000000000000000000000000d5
:1013180000000000000000000000000000000000c5
:1013280000000000000000000000000000000000b5
:101338000000000000000000000000000080000025
:101348000f00000018000000e01f0000001e000051
:1013580000f000003c0000000f000000787800005a
:101368000007000000380000788000000700000037
:1013780038f00000c0030000003c0000f0e000006e
:10138800010000003cf00000e0000000003c00000c
:10139800f0f00000000000003cf0000078000000c1
:1013a800003c0000f0380000000000003c70000025
:1013b8003c00000000780000701e000000000000e3
:1013c800787800000e00000000f000003c070000e4
:1013d80000000000e09f0000870f000000c0000030
:1013e800c7e300001f00000000c00000f13c00003f
:1013f80000000000e07900007800000000f0000024
:101408003878000000000000703c0000f000000088
:10141800003800003cf00000000000003c3c0000e8
:10142800f0000000001e00003cf00000000000007a
:101438000e3c0000f0000000000f00003cf000002f
:1014480000800000077800007000000080030000a2
:101458007878000000c0000001f000003c000000a7
:10146800e0010000e01f00000060000000c0000074
:10147800070000000000000000000000000000005d
:101488000000000000000000000000000000000054
:101498000000000000000000000000000000000044
:1014a8000000000000000000000000000000000034
:1014b8000000000000000000000000000000000024
:1014c8000000000000000000000000000000000014
:1014d8000000000000000000000000000000000004
:1014e80000000000000000000000000000000000f4
:1014f80000000000000000000000000000000000e4
:1015080000000000000000000000000000000000d3
:1015180000000000000000000000000000000000c3
:1015280000000000000000000000000000000000b3
:1015380000000000000000000000000000000000a3
:101548000000000000000000000000000000000093
:10155800000000000000000000000000e0030000a0
:101568000000000000f800000f000000000000006c
:101578001c0f000000000000000e00001f0000000b
:1015880000000000071e0000000000000007000027
:101598001e00000000800000071e00000000000080
:1015a800800700001e00000000800000070e0000f9
:1015b80000000000800700000f000000008000000d
:1015c8008f0700000000000080cf0000030000002b
:1015d80000000000ef0100000000000000ff000014
:1015e80000000000000000003f00000000000000b4
:1015f800003f0000e0ff0000008000003ff0000016
:10160800ff010000c07f0000c063000000e0000090
:10161800fb80000007000000f0f9000080070000d0
:1016280000f00000f00100000700000078f0000062
:101638000307000000780000e00700000700000032
:101648003cc0000007070000003c0000c08f0000fd
:10165800030000003c8000009f030000003c0000e5
:1016680000ff0000010000003c000000fe01000037
:10167800003c000000fc00000000000078000000b2
:10168800f80100000078000000f8000003000000e6
:10169800f0000000fc0f000000e00000038f0000d5
:1016a800ff000000c0ff0000037f000000000000f2
:1016b800ff0000000e000000000000000000000015
:1016c8000000000000000000000000000000000012
:1016d8000000000000000000000000000000000002
:1016e80000000000000000000000000000000000f2
:1016f80000000000000000000000000000000000e2
:1017080000000000000000000000000000000000d1
:1017180000000000000000000000000000000000c1
:1017280000000000000000000000000000000000b1
:1017380000000000000000000000000000000000a1
:101748000000000000000000000000000000000091
:101758000000000000000000c0000000f0000000d1
:10176800f0000000f0000000f0000000f0000000b1
:10177800f0000000f0000000f0000000e0000000b1
:10178800e0000000e0000000e0000000e0000000d1
:101798006000000060000000000000000000000081
:1017a8000000000000000000000000000000000031
:1017b8000000000000000000000000000000000021
:1017c8000000000000000000000000000000000011
:1017d8000000000000000000000000000000000001
:1017e80000000000000000000000000000000000f1
:1017f80000000000000000000000000000000000e1
:1018080000000000000000000000000000000000d0
:1018180000000000000000000000000000000000c0
:1018280000000000000000000000000000000000b0
:10183800000000000020000000700000001c0000f4
:10184800000c0000000e00000007000080070000e8
:1018580080030000c0030000c0010000e001000098
:10186800e0010000e0000000f0000000f0000000cf
:10187800f000000070000000780000007800000010
:101888007800000078000000780000007800000070
:101898007800000078000000780000007800000060
:1018a800780000007800000078000000f0000000d8
:1018b800f0000000f0000000f0000000e00100006f
:1018c800e0010000e0010000c0030000c0030000c8
:1018d8008007000000070000000f0000000e000055
:1018e800001c00000038000000600000000000003c
:1018f80000000000000000000000000000000000e0
:1019080000000000000000000000000000000000cf
:1019180000000000000000000000000004000000bb
:101928001e0000003800000070000000f0000000f9
:10193800e0000000c0010000c0030000c003000078
:10194800800700008007000080070000000f0000eb
:10195800000f0000000f0000000f0000001e000034
:10196800001e0000001e0000001e0000001e0000f7
:10197800001e0000001e0000001e0000001e0000e7
:10198800001e0000001e0000001e0000001e0000d7
:10199800000e0000000f0000000f0000000f000004
:1019a8000007000080070000800700008003000097
:1019b800c0030000c0010000e0010000e0000000da
:1019c8007000000030000000380000000c0000002b
:1019d80006000000000000000000000000000000f9
:1019e80000000000000000000000000000000000ef
:1019f80000000000000000000000000000000000df
:101a080000000000000000000000000000000000ce
:101a180000000000000000000018000000000000a6
:101a28001e000000000e0000000000000c00000076
:101a38000c0c0000063c00000c0f00007c8c000021
:101a48000ff80000ec030000c0ff000000000000d9
:101a58003f000000003f000000c00000ff00000041
:101a6800f0ed0000037c00008c0f00003c0c00002f
:101a78000f1800000c060000000c00000000000019
:101a88000e000000001e000000000000060000001c
:101a9800000000000000000000000000000000003e
:101aa800000000000000000000000000000000002e
:101ab800000000000000000000000000000000001e
:101ac800000000000000000000000000000000000e
:101ad80000000000000000000000000000000000fe
:101ae80000000000000000000000000000000000ee
:101af80000000000000000000000000000000000de
:101b080000000000000000000000000000000000cd
:101b180000000000000000000000000000000000bd
:101b280000000000000000000000000000000000ad
:101b3800000000000000000000000000000000009d
:101b4800000000000000000000000000000000008d
:101b5800000000000000000000000000000000007d
:101b6800000000000000000000000000000000006d
:101b7800000000000000000000000000000000005d
:101b8800000000000000000000000000000000004d
:101b9800000000000000000000000000000000003d
:101ba800000000000000000000000000000000002d
:101bb800000000000000000000000000000000001d
:101bc800000000000000000000000000000000000d
:101bd8000c000000000e0000000000000e000000d5
:101be800000e0000000000000e000000000e0000c3
:101bf800000000000e000000000e000000fc0000c5
:101c0800ff070000fcff0000070000000e000000b6
:101c1800000e0000000000000e000000000e000092
:101c2800000000000e000000000e00000000000090
:101c38000600000000000000000000000000000096
:101c4800000000000000000000000000000000008c
:101c5800000000000000000000000000000000007c
:101c6800000000000000000000000000000000006c
:101c7800000000000000000000000000000000005c
:101c8800000000000000000000000000000000004c
:101c9800000000000000000000000000000000003c
:101ca800000000000000000000000000000000002c
:101cb800000000000000000000000000000000001c
:101cc800000000000000000000000000000000000c
:101cd80000000000000000000000000000000000fc
:101ce80000000000000000000000000000000000ec
:101cf80000000000000000000000000000000000dc
:101d080000000000000000000000000000000000cb
:101d180000000000000000000000000000000000bb
:101d280000000000000000000000000000000000ab
:101d3800000000000000000000000000c0000000db
:101d4800f8000000fc010000fc010000e0010000b8
:101d5800e0010000e0010000e0000000e0000000f9
:101d680070000000300000001800000008000000ab
:101d7800000000000000000000000000000000005b
:101d8800000000000000000000000000000000004b
:101d9800000000000000000000000000000000003b
:101da800000000000000000000000000000000002b
:101db800000000000000000000000000000000001b
:101dc800000000000000000000000000000000000b
:101dd80000000000000000000000000000000000fb
:101de80000000000000000000000000000000000eb
:101df80000000000000000000000000000000000db
:101e080000000000000000000000000000000000ca
:101e180000000000000000000000000000000000ba
:101e280000000000000000000000000000000000aa
:101e3800000000000000000000000000000000009a
:101e48000000000000000000fc7f000000fe000011
:101e58007f000000000000000000000000000000fb
:101e6800000000000000000000000000000000006a
:101e7800000000000000000000000000000000005a
:101e8800000000000000000000000000000000004a
:101e9800000000000000000000000000000000003a
:101ea800000000000000000000000000000000002a
:101eb800000000000000000000000000000000001a
:101ec800000000000000000000000000000000000a
:101ed80000000000000000000000000000000000fa
:101ee80000000000000000000000000000000000ea
:101ef80000000000000000000000000000000000da
:101f080000000000000000000000000000000000c9
:101f180000000000000000000000000000000000b9
:101f280000000000000000000000000000000000a9
:101f38000000000000000000000000000000000099
:101f48000000000000000000000000000000000089
:101f58000000000000000000000000000000000079
:101f68000000000000000000000000000000000069
:101f78000000000000000000000000000000000059
:101f8800e0000000f0010000f8010000f801000086
:101f9800f8010000f80000007000000000000000d8
:101fa8000000000000000000000000000000000029
:101fb8000000000000000000000000000000000019
:101fc8000000000000000000000000000000000009
:101fd80000000000000000000000000000000000f9
:101fe80000000000000000000000000000000000e9
:101ff80000000000000000000038000000000000a1
:102008001c000000001e0000000000001e00000070
:10201800000e0000000000000f0000000007000094
:10202800000000000700000080070000008000009a
:1020380003000000c003000000c00000030000000f
:10204800c001000000e0000001000000e000000006
:1020580000e0000000000000f00000000070000038
:102068000000000078000000007800000000000078
:1020780038000000003c0000000000001c000000c8
:10208800001e0000000000001e000000000e0000fe
:10209800000000000f000000000f0000000000001a
:1020a8000700000080070000008000000300000017
:1020b800c003000000c0000003000000c0010000d1
:1020c80000e0000001000000e001000000e0000066
:1020d80000000000f0000000007000000000000098
:1020e80078000000007800000000000038000000c0
:1020f800003c0000000000003c000000001c000044
:10210800000000000e0000000000000000000000b9
:1021180000000000000000000000000000000000b7
:1021280000000000000000000000000000000000a7
:102138000000000000000000000000000000000097
:102148000000000000000000000000000000000087
:102158000000000000000000000000000000000077
:102168000000000000000000000000000000000067
:102178000000000000000000000000000000000057
:102188000000000000000000007e00000080000049
:10219800ff000000c0e1000001e00000c0030000f3
:1021a800e080000007700000800700007000000059
:1021b8000f780000000f0000380000000f38000002
:1021c800000f00003c0000001e3c0000001e000044
:1021d8003c0000001e3c0000001e00003c00000007
:1021e8001e3c0000001e00003c0000001e3c0000d9
:1021f800001e00003c0000001e3c0000001e000005
:10220800780000000e780000000e00007800000042
:102218000f78000000070000f000000007f0000041
:1022280080030000e081000003c00000c30100003b
:1022380080ff0000000000003f00000000000000d8
:102248000000000000000000000000000000000086
:102258000000000000000000000000000000000076
:102268000000000000000000000000000000000066
:102278000000000000000000000000000000000056
:102288000000000000000000000000000000000046
:102298000000000000000000000000000000000036
:1022a8000000000000000000000000000000000026
:1022b8000000000000000000000000000000000016
:1022c8000000000000000000000000000000000006
:1022d80000000000000000000000000000000000f6
:1022e80030000000003c0000008000003f000000bb
:1022f800e03f000000f800003f000000003c000044
:10230800000000003c000000003c0000000000004d
:102318003c000000003c0000000000003c00000001
:10232800003c0000000000003c000000003c0000f1
:10233800000000003c000000003c0000000000001d
:102348003c000000003c0000000000003c000000d1
:10235800003c0000000000003c000000003c0000c1
:10236800000000003c000000003c000000000000ed
:102378003c000000003c0000000000003c000000a1
:10238800007e000000e00000ff030000f0ff0000f6
:102398000f00000000000000000000000000000026
:1023a8000000000000000000000000000000000025
:1023b8000000000000000000000000000000000015
:1023c8000000000000000000000000000000000005
:1023d80000000000000000000000000000000000f5
:1023e80000000000000000000000000000000000e5
:1023f80000000000000000000000000000000000d5
:1024080000000000000000000000000000000000c4
:1024180000000000000000000000000000000000b4
:1024280000000000000000000000000000000000a4
:102438000000000000000000000000000000000094
:1024480000fc000000800000ff030000c0c1000085
:1024580007e0000080070000708000000f7800008f
:10246800000f0000780000000f380000000f000087
:10247800000000000f000000000f000000800000b6
:10248800070000008007000000c0000003000000f3
:10249800c001000000e0000001000000f0000000a2
:1024a800007800000000000078000000003c0000f8
:1024b800000000001e000000000f00000080000067
:1024c80007000000c003000000c00000030800006f
:1024d800e001000008f0000000080000780000009b
:1024e8000cfc0000ff0f0000f8ff00000f000000c8
:1024f80000000000000000000000000000000000d4
:1025080000000000000000000000000000000000c3
:1025180000000000000000000000000000000000b3
:1025280000000000000000000000000000000000a3
:102538000000000000000000000000000000000093
:102548000000000000000000000000000000000083
:102558000000000000000000000000000000000073
:102568000000000000000000000000000000000063
:102578000000000000000000000000000000000053
:102588000000000000000000000000000000000043
:10259800000000000000000000000000003f0000f4
:1025a80000e00000ff000000f0f00000013800002b
:1025b800e00100003ce00000033c0000c003000014
:1025c8001cc0000003000000c003000000c00000a1
:1025d80003000000e001000000e00000000000002f
:1025e80078000000001c0000008000007f00000050
:1025f80000ff000001000000e003000000c0000030
:1026080003000000c0070000008000000700000071
:10261800800700000080000007000000800700001d
:1026280000800000070000008007000000c00000d4
:1026380003020000c003000006e00000011e0000c5
:10264800f8000000f87f000000e000000f00000024
:102658000000000000000000000000000000000072
:102668000000000000000000000000000000000062
:102678000000000000000000000000000000000052
:102688000000000000000000000000000000000042
:102698000000000000000000000000000000000032
:1026a8000000000000000000000000000000000022
:1026b8000000000000000000000000000000000012
:1026c8000000000000000000000000000000000002
:1026d80000000000000000000000000000000000f2
:1026e80000000000000000000000000000000000e2
:1026f800000000000003000000c00000030000000c
:10270800e003000000f0000003000000f8030000f0
:1027180000f8000003000000dc03000000ce000009
:1027280003000000ce03000000c700000300000003
:10273800c303000080c3000003c00000c103000001
:10274800c0c1000003e00000c003000070c000002a
:1027580003700000c003000038c00000031c000024
:10276800c0030000fcff00001ffe0000ff3f000048
:1027780000c0000003000000c003000000c000000b
:1027880003000000c003000000c0000003000000b8
:10279800c003000000c0000003000000f80f0000a4
:1027a80000fe00001f000000000000000000000004
:1027b8000000000000000000000000000000000011
:1027c8000000000000000000000000000000000001
:1027d80000000000000000000000000000000000f1
:1027e80000000000000000000000000000000000e1
:1027f80000000000000000000000000000000000d1
:1028080000000000000000000000000000000000c0
:1028180000000000000000000000000000000000b0
:1028280000000000000000000000000000000000a0
:102838000000000000000000000000000000000090
:102848000000000000000000000000000000000080
:1028580000000000e0ff000007e00000ff030000a8
:10286800e0ff0000016000000000000060000000c0
:102878000070000000000000700000000070000000
:1028880000000000700000000030000000000000a0
:102898003000000000f000003f000000f8ff0000da
:1028a80000780000f001000010c0000003000000e4
:1028b800800700000080000007000000000f0000f3
:1028c800000000000f000000000f000000000000e2
:1028d8000f000000000f0000000000000f000000c3
:1028e80000070000008000000704000080030000cb
:1028f8001cc00000037c0000f0010000f0ff000095
:10290800008000003f000000000000000000000000
:1029180000000000000000000000000000000000af
:10292800000000000000000000000000000000009f
:10293800000000000000000000000000000000008f
:10294800000000000000000000000000000000007f
:10295800000000000000000000000000000000006f
:10296800000000000000000000000000000000005f
:10297800000000000000000000000000000000004f
:10298800000000000000000000000000000000003f
:10299800000000000000000000000000000000002f
:1029a8000000000000000000000000000006000019
:1029b80000c000000f000000f0000000003c000014
:1029c800000000001e000000000f00000080000052
:1029d80007000000c003000000c000000100000064
:1029e800e001000000e0000000000000f00000002e
:1029f80000700000fc00000070ff000003f80000f9
:102a0800c3070000f88000000ff80000000f000066
:102a1800780000001f780000001e00007800000009
:102a28001e780000001e0000780000001e780000dc
:102a3800001e0000f00000001ef00000000e000064
:102a4800f00000000ee0000001070000c0030000d5
:102a580007c000008703000000ff0000010000001d
:102a68007e000000000000000000000000000000e0
:102a7800000000000000000000000000000000004e
:102a8800000000000000000000000000000000003e
:102a9800000000000000000000000000000000002e
:102aa800000000000000000000000000000000001e
:102ab800000000000000000000000000000000000e
:102ac80000000000000000000000000000000000fe
:102ad80000000000000000000000000000000000ee
:102ae80000000000000000000000000000000000de
:102af80000000000000000000000000000000000ce
:102b0800000000000000000000000000f8ff0000c6
:102b18001ff80000ff1f0000f8ff00001f1800004a
:102b2800000e0000080000000e080000000700006a
:102b380004000000070000000003000000800000ff
:102b4800030000008003000000c000000100000036
:102b5800c001000000c0000000000000e00000000c
:102b680000e000000000000070000000007000009d
:102b780000000000380000000038000000000000dd
:102b88003c000000001c0000000000001e000000c7
:102b9800000e0000000000000f000000000f000001
:102ba80000800000070000008007000000c000004f
:102bb80007000000c003000000e000000000000063
:102bc80000000000000000000000000000000000fd
:102bd80000000000000000000000000000000000ed
:102be80000000000000000000000000000000000dd
:102bf80000000000000000000000000000000000cd
:102c080000000000000000000000000000000000bc
:102c180000000000000000000000000000000000ac
:102c2800000000000000000000000000000000009c
:102c3800000000000000000000000000000000008c
:102c4800000000000000000000000000000000007c
:102c5800000000000000000000000000000000006c
:102c6800000000000000000000fe000000800000de
:102c7800ff030000e0c1000007f00000800700002b
:102c8800700000000f780000000f000078000000be
:102c98000f780000000f0000f800000007f800009f
:102ca80080070000f083000003e00000ef0100004f
:102cb800c07f000000800000ff00000000ff00004f
:102cc80001c00000fb070000e0e100000ff0000079
:102cd800800f0000780000001f380000001f00006f
:102ce8003c0000001e3c0000001e00003c000000ec
:102cf8001e3c0000001e00003c0000000e78000092
:102d0800000f0000f800000007f00000c1030000f9
:102d1800e0ff0000008000003f000000000000000d
:102d2800000000000000000000000000000000009b
:102d3800000000000000000000000000000000008b
:102d4800000000000000000000000000000000007b
:102d5800000000000000000000000000000000006b
:102d6800000000000000000000000000000000005b
:102d7800000000000000000000000000000000004b
:102d8800000000000000000000000000000000003b
:102d9800000000000000000000000000000000002b
:102da800000000000000000000000000000000001b
:102db800000000000000000000000000000000000b
:102dc80000000000007e000000800000ff010000fd
:102dd800c0e1000003e00000c007000070800000b0
:102de80007780000000f0000380000000f3c0000ca
:102df800001f00003c0000001e3c0000001e0000f8
:102e08003c0000001e3c0000001e00007c0000008a
:102e18001e780000001f0000f88000001ff000006e
:102e2800c11e0000e07f00001e8000001f0e000091
:102e3800000000000f000000000f000000800000ec
:102e4800070000008007000000c000000300000029
:102e5800e001000000f00000000000007800000021
:102e6800003c0000008000000f000000f00300009c
:102e780000600000000000000000000000000000ea
:102e8800000000000000000000000000000000003a
:102e9800000000000000000000000000000000002a
:102ea800000000000000000000000000000000001a
:102eb800000000000000000000000000000000000a
:102ec80000000000000000000000000000000000fa
:102ed80000000000000000000000000000000000ea
:102ee80000000000000000000000000000000000da
:102ef80000000000000000000000000000000000ca
:102f080000000000000000000000000000000000b9
:102f18000000000000000000e0000000f0010000d8
:102f2800f8010000f8010000f8010000f8000000b6
:102f38007000000000000000000000000000000019
:102f48000000000000000000000000000000000079
:102f5800000000000000000000000000e000000089
:102f6800f0010000f8010000f8010000f80100007d
:102f7800f8000000700000000000000000000000e1
:102f88000000000000000000000000000000000039
:102f98000000000000000000000000000000000029
:102fa800000000000000000000000000f2850000a2
:102fb80000000000200000007e0000001300000058
:102fc80004840000010000000497000001000000d4
:102fd80007aa00000100000008bd00000100000071
:102fe80008d00000010000000be300000100000011
:102ff8000b09000002000000042f0000020000007e
:103008000542000002000000055500000200000013
:103018000768000002000000077b000002000000b3
:10302800048e00000200000005a10000020000005c
:1030380004b400000200000008c7000002000000fd
:1030480008da00000200000008ed0000020000009d
:103058000700000003000000081300000300000040
:1030680008260000030000000839000003000000e3
:10307800084c000003000000085f00000300000087
:10308800077200000300000008850000030000002c
:10309800049800000300000004ab000003000000d7
:1030a80007be00000300000007d100000300000075
:1030b80007e400000300000007f700000300000019
:1030c8000d0a0000040000000a300000040000009f
:1030d8000956000004000000097c000004000000fc
:1030e80009a200000400000008c800000400000055
:1030f80008db00000400000009ee000004000000e6
:103108000a14000005000000053a00000500000050
:10311800054d0000050000000960000005000000e2
:1031280008860000050000000d9900000500000059
:103138000abf0000050000000ae5000005000000c5
:10314800080b0000060000000a1e00000600000030
:103158000944000006000000086a0000060000009c
:10316800097d0000060000000aa300000600000018
:103178000ac90000060000000eef0000060000006b
:103188000a150000070000000a3b000007000000c5
:103198000861000007000000057400000700000037
:1031a8000887000007000000059a000007000000db
:1031b80008ad00000700000008c00000070000007c
:1031c80005d300000700000007e600000700000024
:1031d80008f9000007000000070c000008000000c4
:1031e800081f000008000000073200000800000067
:1031f800054500000800000007580000080000000e
:10320800096b00000800000004910000080000009d
:1032180004a400000800000008b70000080000002f
:1032280004ca0000080000000cdd000008000000cf
:103238000903000009000000082900000900000037
:10324800083c000009000000084f000009000000c9
:103258000662000009000000067500000900000071
:103268000688000009000000089b00000900000013
:1032780008ae0000090000000bc1000009000000b2
:1032880008e700000900000008fa00000900000033
:10329800070d00000a000000042000000a000000da
:1032a800043300000a000000044600000a00000081
:1032b800085900000a00000000000000000000009b
:1032c80000000000000000000000000000000000f6
:1032d80000000000000000000000000000000000e6
:1032e80000040000060600000404000004040000b6
:1032f80004040000000400000400000000000000b6
:10330800000000000000000036160000161600003d
:103318001212000000000000000000000000000081
:103328000000000000000000000000000000000095
:103338000050000048280000fc2400007e14000013
:103348001212000000000000000000000000000051
:1033580000000000000800003c2a00000a0e0000df
:103368001c380000484a00004a3c000008000000e1
:103378000000000000000000000000000000000045
:1033880000000000000c0000039200000192000001
:1033980000520000002a000000ac000001500000ac
:1033a80002480000024c00000284000001000000f6
:1033b8000000000000000000000000000000000005
:1033c80000000000000000000000000000380000bd
:1033d80000440000004400000044000000340000e5
:1033e800009c00000712000001220000016200009a
:1033f80001c20000003c00000700000000000000bf
:1034080000000000000000000000000000000000b4
:103418000006000006060000060200000200000088
:103428000000000000000000000000000000000094
:103438000000000000080000040400000202000070
:103448000202000002020000020200000204000062
:103458000408000000000000000000000204000052
:103468000408000008080000080800000808000018
:10347800080800000404000002000000000000002a
:1034880000000000082a00005c1c00002a08000058
:103498000000000000000000000000000000000024
:1034a8000000000000000000000000000000000014
:1034b80000000000080800003e08000008000000a6
:1034c80000000000000000000000000000000000f4
:1034d80000000000000000000000000000000000e4
:1034e80000000000060400000402000000000000c4
:1034f80000000000000000000000000000000000c4
:10350800000000001f000000000000000000000094
:1035180000000000000000000000000000000000a3
:103528000000000000000000000000000000000093
:10353800020200000000000000000000000000007f
:10354800406000002020000030100000101800002b
:103558000808000004040000040200000203000040
:1035680000000000000000000000000038240000f7
:10357800424200004242000042420000241800007b
:103588000000000000000000000000000000000033
:10359800001000001c1000001010000010100000a7
:1035a800101000007c000000000000000000000077
:1035b8000000000000000000382400002220000065
:1035c8001008000008040000223e0000000000006f
:1035d80000000000000000000000000000380000ab
:1035e8002422000010180000204000004042000083
:1035f8003c00000000000000000000000000000087
:1036080000000000203000002828000024220000cc
:103618007e2000002078000000000000000000006c
:103628000000000000000000002000003c02000034
:10363800021e000022200000202200001c000000c2
:103648000000000000000000000000000000000072
:1036580030080000040200003e4200004242000020
:1036680024380000000000000000000000000000f6
:1036780000000000000000007e2200002010000072
:1036880010100000080800000400000000000000fe
:103698000000000000000000000000001c220000e4
:1036a800221200001c32000022220000221c00000e
:1036b8000000000000000000000000000000000002
:1036c800003800006642000042420000467c0000cc
:1036d800201000000c0000000000000000000000a6
:1036e80000000000000000000000000002020000ce
:1036f80000000000000000000202000000000000be
:1037080000000000000000000000000000000000b1
:103718000002000002000000000000000006000097
:103728000404000002000000000000000000000087
:103738000000000000000000006000001c02000003
:103748001d600000000000000000000000000000f4
:103758000000000000000000000000000000000061
:10376800007e0000017f0000000000000000000053
:103778000000000000000000000000000000000041
:1037880000000000000300001c6000001c03000093
:103798000000000000000000000000000000000021
:1037a800001c000022220000202000001008000059
:1037b80008080000000800000800000000000000e1
:1037c80000000000000000000000000000000000f1
:1037d80000000000e00100001806000004040000da
:1037e800c209000032090000120900001209000095
:1037f8001209000012050000e403000004000000a4
:1038080018060000f00100000000000000000000a1
:1038180000000000000000000000000000000000a0
:103828001000000030000000280000002800000000
:1038380068000000440000007c000000c400000094
:1038480082000000c7010000000000000000000026
:103858000000000000000000000000000000000060
:103868000000000000000000000000003e00000012
:103878004400000044000000440000007c000000f8
:10388800c4000000840000008400000084000000e0
:103898007e000000000000000000000000000000a2
:1038a8000000000000000000000000000000000010
:1038b800000000000000000078000000c4000000c4
:1038c80002000000020000000200000002000000e8
:1038d80002000000020000008400000078000000e0
:1038e80000000000000000000000000000000000d0
:1038f80000000000000000000000000000000000c0
:10390800000000003e0000004400000084000000a9
:10391800840000008400000084000000840000008f
:1039280084000000440000003e0000000000000089
:10393800000000000000000000000000000000007f
:1039480000000000000000007e44000004040000a5
:103958003c04000004040000847e00000000000015
:10396800000000000000000000000000007e0000d1
:1039780044040000043c00000404000004040000a7
:103988000e00000000000000000000000000000021
:10399800000000000000000000000000f00000002f
:1039a8004c000000020000000200000002000000bd
:1039b800e201000082000000820000008400000094
:1039c8007800000000000000000000000000000077
:1039d80000000000000000000000000000000000df
:1039e8000000000000000000ce010000840000007c
:1039f8008400000084000000fc0000008400000037
:103a0800840000008400000084000000ce01000053
:103a1800000000000000000000000000000000009e
:103a28000000000000000000000000000e0400007c
:103a3800040400000404000004040000040e000054
:103a4800000000000000000000000000000000006e
:103a5800000f000004040000040400000404000037
:103a6800040400000404000002010000000000003b
:103a7800000000000000000000000000000000003e
:103a8800ee010000440000002400000014000000c3
:103a98000c0000001c00000034000000240000009e
:103aa800440000008e01000000000000000000003b
:103ab80000000000000000000000000000000000fe
:103ac800000000000e0400000404000004040000cc
:103ad80004040000847e00000000000000000000d4
:103ae80000000000000000000000000000000000ce
:103af800000600000e0c0000060c0000061c00006a
:103b0800051400000594000004a4000004620000ed
:103b180004620000044f00000e00000000000000d6
:103b2800000000000000000000000000000000008d
:103b380000000000000000000000000000c60000b7
:103b4800018c0000008c000000940000009400002c
:103b580000a4000000a4000000c4000000c400008d
:103b6800008e0000000000000000000000000000bf
:103b7800000000000000000000000000000000003d
:103b88000000000000000000007800000084000031
:103b98000002000001020000010200000102000012
:103ba800010200000182000000840000007800008b
:103bb80000000000000000000000000000000000fd
:103bc800000000000000000000000000003e0000af
:103bd80044440000444400003c0400000404000085
:103be8000e000000000000000000000000000000bf
:103bf8000000000000000000000000007800000045
:103c0800840000000201000002010000020100001f
:103c18000201000002010000820000008400000090
:103c280078000000c00200008003000000000000cf
:103c3800000000000000000000000000000000007c
:103c480000000000000000003e00000044000000ea
:103c580044000000440000003c0000001400000084
:103c6800240000002400000044000000ce010000f1
:103c7800000000000000000000000000000000003c
:103c88000000000000000000000000003c6200008e
:103c9800020600001c20000040420000423e0000d6
:103ca800000000000000000000000000000000000c
:103cb800000000000000000000fe0000019100006c
:103cc80000100000001000000010000000100000ac
:103cd8000010000000100000001000000038000074
:103ce80000000000000000000000000000000000cc
:103cf80000000000000000000000000000000000bc
:103d08000000000000ce00000184000000840000d4
:103d1800008400000084000000840000008400008b
:103d280000840000004c0000007800000000000043
:103d3800000000000000000000000000000000007b
:103d4800000000000000000000000000000000006b
:103d5800008f00000304000001840000008c0000b4
:103d680000880000004800000058000000500000d3
:103d780000300000002000000000000000000000eb
:103d8800000000000000000000000000000000002b
:103d9800000000000000000000000000004f0000cc
:103da8001c42000008c6000008a4000008a4000087
:103db80005240000051c0000051800000718000075
:103dc80002080000020000000000000000000000df
:103dd80000000000000000000000000000000000db
:103de800000000000000000000cf00000186000075
:103df800004c0000003800000030000000300000d7
:103e08000068000000c400000084000000cf00002b
:103e18000300000000000000000000000000000097
:103e2800000000000000000000000000000000008a
:103e38000000000000c3000001440000004c000026
:103e480000280000003800000010000000100000ea
:103e58000010000000100000003800000000000002
:103e6800000000000000000000000000000000004a
:103e7800000000000000000000fe000042210000d9
:103e880030100000080c000084820000ff000000d1
:103e98000000000000000000000e00000202000008
:103ea80002020000020200000202000002020000fa
:103eb80002020000020200000e00000000000000e4
:103ec80003020000020400000404000008080000c7
:103ed80008100000103000002020000040400000c2
:103ee80000000000000e000008080000080800009c
:103ef800080800000808000008080000080800007a
:103f0800080800000e00000000000000001000007b
:103f1800181800003424000022620000420000004b
:103f28000000000000000000000000000000000089
:103f38000000000000000000000000000000000079
:103f4800000000000000000000000000007f0000ea
:103f58000000000000000000000000000304000052
:103f68000400000000000000000000000000000045
:103f78000000000000000000000000000000000039
:103f880000000000000000000038000026200000ab
:103f98003c220000326e000000000000000000001b
:103fa80000000000000300000202000002020000fe
:103fb8003a66000042420000422200001c00000055
:103fc80000000000000000000000000000000000e9
:103fd8000000000000380000260200000202000075
:103fe800661c000000000000000000000000000047
:103ff800006000004040000040400000784600009b
:104008004242000042660000dc00000000000000a0
:104018000000000000000000000000000000000098
:10402800003c0000427e000002020000463c000006
:104038000000000000000000000000000010000068
:1040480008040000040400001e040000040400002a
:10405800040400001e000000000000000000000032
:10406800000000000000000000000000007e0000ca
:1040780021210000231e0000021e000061410000f3
:10408800611e0000000000000000000000060000a3
:104098000004000000040000000400000004000008
:1040a80000e40000009c0000008400000084000080
:1040b800008400000084000000ce00000100000021
:1040c80000000000000000000000000000000000e8
:1040d80000000000000000000404000000000000d0
:1040e8000604000004040000040400000e000000a0
:1040f80000000000000000000000000000040000b4
:10410800040000000006000004040000040400008d
:104118000404000004040000020100000000000084
:10412800000600000404000004040000e424000069
:104138001c14000034640000ce00000000000000e1
:104148000000000000000000060400000404000055
:10415800040400000404000004040000040e00002d
:104168000000000000000000000000000000000047
:104178000000000000000000000000000000000037
:10418800000000000076000007cc00000444000096
:1041980004440000044400000444000004ee00004d
:1041a8000e000000000000000000000000000000f9
:1041b80000000000000000000000000000000000f7
:1041c80000000000000000000000000000000000e7
:1041d80000e40000009e000000840000008400004d
:1041e800008400000084000000ce000001000000f0
:1041f80000000000000000000000000000000000b7
:1042080000000000000000000000000000000000a6
:104218003866000042420000422600001c000000f0
:104228000000000000000000000000000000000086
:1042380000000000003600004c4400004444000028
:10424800243c000004040000040e000000000000ec
:10425800000000000000000000000000784400009a
:1042680042420000426600005c40000040400000fe
:10427800e000000000000000000000000000000056
:10428800003600002c04000004040000040e0000a6
:104298000000000000000000000000000000000016
:1042a80000000000000000000c120000020c0000da
:1042b800121200000e0000000000000000000000c4
:1042c800000000000000000002020000021f0000c1
:1042d8000202000002020000021e000000000000ae
:1042e80000000000000000000000000000000000c6
:1042f80000000000634200004242000042620000e9
:10430800dc000000000000000000000000000000c9
:10431800000000000000000000e700004624000044
:104328002418000018180000000000000000000019
:104338000000000000000000000000000000000075
:10434800000000000000000000000000002700003e
:10435800066200000264000002540000029400009b
:10436800018c00000188000001000000000000002e
:104378000000000000000000000000000000000035
:10438800000000000000000000000000ef24000012
:104398001818000034620000e70000000000000068
:1043a8000000000000000000000000000000000005
:1043b80000e7000046240000242c00001818000024
:1043c80008080000040300000000000000000000ce
:1043d80000000000000000003e220000100800005d
:1043e800042200003e000000000000000000000061
:1043f8000008000004040000040400000404000095
:104408000304000004040000040400000408000081
:10441800000000000000000002020000020200008c
:104428000202000002020000020200000202000074
:10443800020200000202000000000000000100006b
:104448000202000002020000020200000c0200004a
:104458000202000002020000020100000000000049
:104468000000000000000000000000000000000044
:10447800004c0000330000000000000000000000b5
:10448800000000000000000000000000dc970000b1
:1044980000000000200000007e0000001100000065
:1044a80003840000010000000495000001000000e2
:1044b80006a600000100000007b700000100000088
:1044c80007c80000010000000ad900000100000030
:1044d8000afb000001000000041d000002000000ab
:1044e800042e000002000000043f0000020000004b
:1044f80006500000020000000661000002000000f3
:1045080003720000020000000583000002000000a2
:10451800039400000200000007a50000020000004c
:1045280007b600000200000007c7000002000000f4
:1045380007d800000200000007e9000002000000a0
:1045480007fa000002000000070b0000030000004b
:10455800071c000003000000072d000003000000f6
:10456800073e000003000000074f000003000000a2
:104578000360000003000000037100000300000056
:1045880006820000030000000693000003000000fc
:1045980006a400000300000006b5000003000000a8
:1045a8000cc600000300000008e80000030000003b
:1045b80008f9000003000000080a000004000000d9
:1045c800081b000004000000072c00000400000085
:1045d800073d000004000000084e00000400000031
:1045e800095f0000040000000481000004000000ce
:1045f800049200000400000008a30000040000006a
:1046080007b40000040000000bc50000040000000f
:1046180009e7000004000000080900000500000088
:10462800071a000005000000082b00000500000024
:10463800083c000005000000074d000005000000d0
:10464800085e000005000000096f0000050000007a
:1046580009910000050000000cb3000005000000ef
:1046680009d500000500000008f70000050000005b
:1046780007080000060000000419000006000000fa
:10468800072a000006000000043b000006000000a6
:10469800074c000006000000075d0000060000004f
:1046a800046e000006000000067f000006000000ff
:1046b800079000000600000006a1000006000000a8
:1046c80007b200000600000006c300000600000054
:1046d80004d400000600000007e500000600000002
:1046e80008f60000060000000407000007000000ac
:1046f8000418000007000000072900000700000058
:10470800043a0000070000000b4b000007000000ff
:10471800086d000007000000077e00000700000089
:10472800078f00000700000007a000000700000036
:1047380006b100000700000005c2000007000000e5
:1047480005d300000700000007e400000700000090
:1047580007f50000070000000a0600000800000036
:1047680007280000080000000739000008000000c2
:10477800064a000008000000045b00000800000072
:10478800036c000008000000047d00000800000021
:10479800078e000008000000000000000000000074
:1047a8000000000000000000000000000000000001
:1047b80000000000000000000000000000000000f1
:1047c80006060000020200000202000002020000c9
:1047d80002020000000000000000000000000000cd
:1047e8000012000012120000120000000000000079
:1047f80000000000000000000000000000000000b1
:104808000000000000280000282800007e14000096
:104818003e0a00000a00000000000000000000003e
:104828000000000000000000083c00002a0a000008
:104838001c2800002a2a00001c08000000000000b4
:104848000000000000000000000000000000000060
:104858000000000000840000004a0000004a000038
:1048680000e60000003000000128000001240000dc
:1048780001c6000000000000000000000000000069
:104888000000000000000000000000000000000020
:10489800003800000024000000240000001400007c
:1048a80000cc0000039a00000092000000a2000063
:1048b80000c2000000bc0000010000000000000071
:1048c80000000000000000000000000000000000e0
:1048d80002020000020200000000000000000000c8
:1048e80000000000000000000000000000000000c0
:1048f8000804000002020000020200000202000098
:10490800020200000204000008000000000000008d
:104918000002000004080000080800000808000061
:10492800080800000804000004020000000000005d
:104938000000000008150000361c000027080000d1
:10494800000000000000000000000000000000005f
:10495800000000000000000000000000000000004f
:10496800040400001f040000040000000000000010
:10497800000000000000000000000000000000002f
:104988000000000000000000000400000604000011
:10499800020000000000000000000000000000000d
:1049a80000000000000000000f00000000000000f0
:1049b80000000000000000000000000000000000ef
:1049c80000000000000000000000000000020000dd
:1049d80002000000000000000000000000200000ad
:1049e8002010000010100000080800000404000057
:1049f80004020000020100000000000000000000a6
:104a0800000000001c1200002222000022220000e8
:104a1800221400001c00000000000000000000003c
:104a280000000000000800000e0800000808000050
:104a380008080000083e0000000000000000000018
:104a480000000000000000003824000022200000c0
:104a580010080000042400003e00000000000000d0
:104a68000000000000000000001c00001210000000
:104a7800081e000020200000221c0000000000008a
:104a880000000000000000000000000010180000f6
:104a980014140000121200003e110000380000003b
:104aa80000000000000000000000000000000000fe
:104ab8003c040000041c000022200000221c00000e
:104ac80000000000000000000000000000000000de
:104ad800300c0000040200001e2200002222000008
:104ae8001c000000000000000000000000000000a2
:104af800000000003e12000010100000080800002e
:104b08000404000000000000000000000000000095
:104b1800000000001c220000221600001c220000d9
:104b2800222200001c00000000000000000000001d
:104b380000000000001c00003222000022220000b9
:104b48003c100000100e00000000000000000000f3
:104b58000000000000000000000000000202000049
:104b68000000000000020000020000000000000039
:104b7800000000000000000000000000000200002b
:104b8800020000000000000004060000040200000b
:104b9800000000000000000000000000000000000d
:104ba800003000000e070000380000000000000080
:104bb80000000000000000000000000000000000ed
:104bc80000000000003f0000003f0000000000005f
:104bd80000000000000000000000000000000000cd
:104be80000000000000300001c380000070000005f
:104bf80000000000000000000000000000000000ad
:104c08000c12000012100000080800000404000044
:104c18000404000000000000000000000000000084
:104c2800000000000000000000000000f00100008b
:104c38000c03000002020000f104000089040000d7
:104c4800890400008904000089020000f1010000c5
:104c5800020000000c030000f80000000000000043
:104c680000000000000000001018000018240000d8
:104c7800243c000042420000e70000000000000061
:104c88000000000000000000001f000022220000b9
:104c9800223e000062420000423f00000000000087
:104ca8000000000000000000000000007844000040
:104cb8000202000002020000024400003800000066
:104cc800000000000000000000000000001f0000bd
:104cd800224200004242000042420000221f00001f
:104ce80000000000000000000000000000000000bc
:104cf8003f220000020200001e0200000222000003
:104d08003f0000000000000000000000000000005c
:104d1800003f000022020000021e00000202000004
:104d28000207000000000000000000000000000072
:104d380000000000782600000101000001e10000e9
:104d4800414200003c00000000000000000000009c
:104d580000000000000000000000000000c7000084
:104d680001820000008200000082000000fe0000b6
:104d780000820000008200000082000000c70000de
:104d8800010000000000000000000000000000001a
:104d98000000000000000000000e000004040000f5
:104da8000404000004040000040e000000000000d9
:104db8000000000000000000000000000e040000d9
:104dc80004040000040400000404000004040000bb
:104dd80002030000000000000000000000e70000df
:104de800221200000a0e00001a12000022c700005a
:104df80000000000000000000000000000000000ab
:104e08000702000002020000020200000222000065
:104e18003f0000000000000000000000000000004b
:104e28000000000000000000000700000706000066
:104e3800038a0000028a0000025a000002520000a1
:104e480002520000022200000227000007000000b2
:104e5800000000000000000000000000000000004a
:104e680000000000000000000000000000c3000077
:104e780001860000008e0000008a000000920000f9
:104e880000a2000000e2000000c20000008700004d
:104e9800000000000000000000000000000000000a
:104ea8000000000000000000001c0000224100007b
:104eb8004141000041410000221c000000000000a8
:104ec8000000000000000000000000001f22000099
:104ed80022220000221e000002020000070000003b
:104ee800000000000000000000000000001c00009e
:104ef800224100004141000041410000221c000005
:104f0800b0c0000000000000000000000000000029
:104f18003f420000424200003e1a00003262000098
:104f2800c7000000000000000000000000000000b2
:104f3800001c0000320200000418000020200000bd
:104f4800221e000000000000000000000000000019
:104f5800000000007f490000080800000808000061
:104f6800080800001c00000000000000000000000d
:104f780000000000000000000000000000c7000062
:104f88000182000000820000008200000082000010
:104f9800008200000082000000460000003c000083
:104fa80000000000000000000000000000000000f9
:104fb80000000000000000000000000000000000e9
:104fc80000c7000001860000004400000044000003
:104fd800002c00000028000000280000001000003d
:104fe80000100000000000000000000000000000a9
:104ff80000000000000000000000000000000000a9
:1050080000000000002700000e620000026200009d
:10501800025400000294000002940000028c000078
:105028000108000001080000010000000000000065
:105038000000000000000000000000000000000068
:10504800000000000000000000e70000004600002b
:1050580000240000001800000010000000380000c4
:10506800006400000042000000e7000000000000ab
:105078000000000000000000000000000000000028
:105088000000000000c700004428000028100000ad
:1050980010100000103800000000000000000000a0
:1050a80000000000000000007e2200001010000038
:1050b80008040000044200007f0000000000000017
:1050c80000000000000e00000202000002020000c2
:1050d800020200000202000002020000020e0000ac
:1050e80000000000000000000102000002040000af
:1050f8000404000008080000101000001020000040
:105108002000000000000000000700000404000068
:105118000404000004040000040400000404000067
:10512800040700000000000000000000080800005c
:1051380014140000122200002200000000000000e9
:105148000000000000000000000000000000000057
:105158000000000000000000000000000000000047
:1051680000000000003f00000000000000000000f8
:10517800000300000204000000000000000000001e
:105188000000000000000000000000000000000017
:105198000000000000000000000000001c120000d9
:1051a800111e0000123e0000000000000000000078
:1051b800000000000302000002020000021e0000be
:1051c80026220000222200001c000000000000002f
:1051d80000000000000000000000000000000000c7
:1051e8003c22000002020000221c00000000000017
:1051f8000000000000000000302000002020000017
:10520800203c000022220000222200007c00000036
:105218000000000000000000000000000000000086
:10522800000000001c2200003e020000221c0000ba
:105238000000000000000000000000000806000058
:1052480002020000020f0000020200000202000039
:10525800070000000000000000000000000000003f
:1052680000000000000000007e210000211e000058
:10527800063a0000414100003e0000000000000026
:105288000302000002020000027a00004642000009
:1052980042420000e700000000000000000000009b
:1052a80000000000000200000000000003020000ef
:1052b80002020000020700000000000000000000d9
:1052c80000000000000000000200000000030000d1
:1052d80002020000020200000202000002010000b7
:1052e80000000000000300000202000002020000ab
:1052f800320a0000060a00001277000000000000d1
:10530800000000000000000003020000020200008c
:105318000202000002020000020200000700000072
:105328000000000000000000000000000000000075
:105338000000000000000000000000000000000065
:1053480000bb0000036600000222000002220000e9
:1053580002220000027700000700000000000000a1
:105368000000000000000000000000000000000035
:105378000000000000000000724f000042420000e0
:1053880042e70000000000000000000000000000ec
:105398000000000000000000001c000022220000a5
:1053a800222200001c000000000000000000000095
:1053b8000000000000000000000000001b260000a4
:1053c80022220000221e0000020200000700000046
:1053d800000000000000000000000000003c000089
:1053e80022220000222200003c2000002070000041
:1053f80000000000000000000000000000000000a5
:105408001b16000002020000020700000000000056
:105418000000000000000000000000000000000084
:10542800000600000e060000080a00000e0000003a
:105438000000000000000000000000000002000062
:10544800020200000f02000002020000020e00002b
:105458000000000000000000000000000000000044
:105468000000000000330000222200002222000079
:105478007e000000000000000000000000000000a6
:105488000000000000000000672200001414000063
:1054980008080000000000000000000000000000f4
:1054a80000000000000000000000000000000000f4
:1054b8000000000000000000270300003201000087
:1054c800b2000000cc000000cc000000c8000000c2
:1054d80000000000000000000000000000000000c4
:1054e800000000000000000000000000007700003d
:1054f800160800001c2200007700000000000000d1
:105508000000000000000000000000000000000093
:1055180077220000141400000808000008040000a6
:105528000300000000000000000000000000000070
:10553800003e000012080000042200003e000000a7
:105548000000000000000000000800000404000043
:105558000404000004020000050400000404000024
:105568000408000000000000000000000202000023
:105578000202000002020000020200000202000013
:10558800020200000202000000000000000100000a
:105598000202000002020000020c000002020000e9
:1055a80002020000020100000000000000000000ec
:1055b8000000000000000000000000006e3900003c
:1055c80000000000000000000000000000000000d3
:1055d800000000004ca200000000000020000000b5
:1055e8002c00000019000000053c0000000000002d
:1055f80004550000000000000d6e000000000000cf
:1056080012a00000000000000aeb000000000000eb
:105618000b1d0000010000000b4f000001000000fe
:105628000c810000010000000cb300000100000024
:105638000be500000100000009170000020000004f
:105648000a490000020000000a7b00000200000076
:105658000000000000000000000000000000000042
:105668000000000000000000000000000000000032
:105678000000000000000000000000000000000022
:10568800000000000000000000000000000600000c
:1056980006060000060600000606000002020000da
:1056a80002000000060e00000e00000000000000ce
:1056b80000000000000000000000000000000000e2
:1056c8000000000000000000e40100001c030000ce
:1056d8000c06000004060000040600000006000096
:1056e80080030000f0010000000700000c0e00001d
:1056f8000e0e00000e0e0000020e0000040700004f
:10570800f801000000000000000000000000000098
:105718000000000000000000000000000000000081
:105728000000000000000000000000000000000071
:1057380000000000003e0000e003000038e0000028
:1057480000780000e000000068d000000068000059
:10575800d0000000e8d0000000c80000c800000029
:10576800c8c8000000c80000c900000088c50000c3
:1057780000880000c500000008c7000000080000fd
:10578800c30000001cc30000003e0000f20300003c
:105798000000000000000000000000000000000001
:1057a80000000000000000000000000000000000f1
:1057b80000000000000000000000000000000000e1
:1057c80000000000000000000000000000000000d1
:1057d8000000000000f800000086000001860000bc
:1057e8000186000001f00000018c00000186000025
:1057f8000183000001c60000013e00000300000014
:105808000000000000000000000000000000000090
:105818000000000000000000000000000000000080
:105828000000000000000000000000000000000070
:1058380000000000000000000000000000ff000061
:10584800018c0000010c0000018c0000017c0000ac
:10585800008c0000030c0000030c000003ff000094
:10586800010000000000000000000000000000002f
:105878000000000000000000000000000000000020
:105888000000000000000000000000000000000010
:105898000000000000000000000000000000000000
:1058a80000fc000003980000018800000188000047
:1058b80001880000018800000184000001840000c4
:1058c80001ff0000030300000301000002010000c3
:1058d80002000000000000000000000000000000be
:1058e80000000000000000000000000000000000b0
:1058f80000000000000000000000000000000000a0
:105908000000000000ff00000f0c0000038c0000e6
:1059180003cc0000036c0000033c0000031c0000e3
:10592800030c000003ff00000f000000000000004f
:10593800000000000000000000000000000000005f
:10594800000000000000000000000000000000004f
:1059580000000000009800000198000001f000001d
:10596800000000000000000000ff00000f0c000015
:10597800038c000003cc0000036c0000033c000013
:10598800031c0000030c000003ff00000f000000d0
:1059980000000000000000000000000000000000ff
:1059a80000000000000000000000000000000000ef
:1059b80000000000000000000000000000000000df
:1059c800000000000000000000ef0000009c000044
:1059d800010c0000030c0000030c0000030c000085
:1059e800030c0000030c0000039c000001ec000005
:1059f800000c0000000c0000000c0000001f00005c
:105a0800000000000000000000000000000000008e
:105a1800000000000000000000000000000000007e
:105a280000000000000000000000000000f000007e
:105a3800008c000001c4000001860000010600007f
:105a4800000600000006000000060000018c0000af
:105a580001780000000000000000000000000000c5
:105a6800000000000000000000000000000000002e
:105a7800000000000000000000000000000000001e
